{
  "_format": "hh3-artifact-1",
  "contractName": "ConfidentialTransfer",
  "sourceName": "contracts/Transfer.sol",
  "abi": [
    {
      "inputs": [
        {
          "internalType": "address",
          "name": "_usdcToken",
          "type": "address"
        }
      ],
      "stateMutability": "nonpayable",
      "type": "constructor"
    },
    {
      "inputs": [],
      "name": "InsufficientBalance",
      "type": "error"
    },
    {
      "inputs": [],
      "name": "InvalidAddress",
      "type": "error"
    },
    {
      "inputs": [],
      "name": "InvalidAmount",
      "type": "error"
    },
    {
      "inputs": [],
      "name": "TransferFailedError",
      "type": "error"
    },
    {
      "anonymous": false,
      "inputs": [
        {
          "indexed": true,
          "internalType": "address",
          "name": "from",
          "type": "address"
        },
        {
          "indexed": true,
          "internalType": "address",
          "name": "to",
          "type": "address"
        },
        {
          "indexed": false,
          "internalType": "uint256",
          "name": "amount",
          "type": "uint256"
        },
        {
          "indexed": false,
          "internalType": "uint256",
          "name": "timestamp",
          "type": "uint256"
        }
      ],
      "name": "TransferExecuted",
      "type": "event"
    },
    {
      "anonymous": false,
      "inputs": [
        {
          "indexed": true,
          "internalType": "address",
          "name": "from",
          "type": "address"
        },
        {
          "indexed": true,
          "internalType": "address",
          "name": "to",
          "type": "address"
        },
        {
          "indexed": false,
          "internalType": "uint256",
          "name": "amount",
          "type": "uint256"
        },
        {
          "indexed": false,
          "internalType": "string",
          "name": "reason",
          "type": "string"
        }
      ],
      "name": "TransferFailed",
      "type": "event"
    },
    {
      "inputs": [
        {
          "internalType": "address",
          "name": "owner",
          "type": "address"
        }
      ],
      "name": "getUSDCAllowance",
      "outputs": [
        {
          "internalType": "uint256",
          "name": "allowance",
          "type": "uint256"
        }
      ],
      "stateMutability": "view",
      "type": "function"
    },
    {
      "inputs": [
        {
          "internalType": "address",
          "name": "account",
          "type": "address"
        }
      ],
      "name": "getUSDCBalance",
      "outputs": [
        {
          "internalType": "uint256",
          "name": "balance",
          "type": "uint256"
        }
      ],
      "stateMutability": "view",
      "type": "function"
    },
    {
      "inputs": [
        {
          "internalType": "address",
          "name": "recipient",
          "type": "address"
        },
        {
          "internalType": "uint256",
          "name": "amount",
          "type": "uint256"
        }
      ],
      "name": "transferUSDC",
      "outputs": [
        {
          "internalType": "bool",
          "name": "success",
          "type": "bool"
        }
      ],
      "stateMutability": "nonpayable",
      "type": "function"
    },
    {
      "inputs": [
        {
          "internalType": "address",
          "name": "from",
          "type": "address"
        },
        {
          "internalType": "address",
          "name": "to",
          "type": "address"
        },
        {
          "internalType": "uint256",
          "name": "amount",
          "type": "uint256"
        }
      ],
      "name": "transferUSDCFrom",
      "outputs": [
        {
          "internalType": "bool",
          "name": "success",
          "type": "bool"
        }
      ],
      "stateMutability": "nonpayable",
      "type": "function"
    },
    {
      "inputs": [],
      "name": "usdcToken",
      "outputs": [
        {
          "internalType": "address",
          "name": "",
          "type": "address"
        }
      ],
      "stateMutability": "view",
      "type": "function"
    }
  ],
  "bytecode": "0x60a060405234801561000f575f5ffd5b50604051610f4c380380610f4c8339818101604052810190610031919061012e565b5f73ffffffffffffffffffffffffffffffffffffffff168173ffffffffffffffffffffffffffffffffffffffff1603610096576040517fe6c4247b00000000000000000000000000000000000000000000000000000000815260040160405180910390fd5b8073ffffffffffffffffffffffffffffffffffffffff1660808173ffffffffffffffffffffffffffffffffffffffff168152505050610159565b5f5ffd5b5f73ffffffffffffffffffffffffffffffffffffffff82169050919050565b5f6100fd826100d4565b9050919050565b61010d816100f3565b8114610117575f5ffd5b50565b5f8151905061012881610104565b92915050565b5f60208284031215610143576101426100d0565b5b5f6101508482850161011a565b91505092915050565b608051610dbf61018d5f395f81816101390152818161015f015281816102d901528181610546015261068b0152610dbf5ff3fe608060405234801561000f575f5ffd5b5060043610610055575f3560e01c806311eac855146100595780636802471714610077578063d30e3045146100a7578063f2f69a90146100d7578063f7aaaf3f14610107575b5f5ffd5b610061610137565b60405161006e91906109e8565b60405180910390f35b610091600480360381019061008c9190610a2f565b61015b565b60405161009e9190610a72565b60405180910390f35b6100c160048036038101906100bc9190610ab5565b610200565b6040516100ce9190610b1f565b60405180910390f35b6100f160048036038101906100ec9190610a2f565b610542565b6040516100fe9190610a72565b60405180910390f35b610121600480360381019061011c9190610b38565b6105e9565b60405161012e9190610b1f565b60405180910390f35b7f000000000000000000000000000000000000000000000000000000000000000081565b5f5f7f000000000000000000000000000000000000000000000000000000000000000090508073ffffffffffffffffffffffffffffffffffffffff166370a08231846040518263ffffffff1660e01b81526004016101b991906109e8565b602060405180830381865afa1580156101d4573d5f5f3e3d5ffd5b505050506040513d601f19601f820116820180604052508101906101f89190610b8a565b915050919050565b5f5f73ffffffffffffffffffffffffffffffffffffffff168473ffffffffffffffffffffffffffffffffffffffff16148061026657505f73ffffffffffffffffffffffffffffffffffffffff168373ffffffffffffffffffffffffffffffffffffffff16145b1561029d576040517fe6c4247b00000000000000000000000000000000000000000000000000000000815260040160405180910390fd5b5f82036102d6576040517f2c5211c600000000000000000000000000000000000000000000000000000000815260040160405180910390fd5b5f7f000000000000000000000000000000000000000000000000000000000000000090505f8173ffffffffffffffffffffffffffffffffffffffff1663dd62ed3e87306040518363ffffffff1660e01b8152600401610336929190610bb5565b602060405180830381865afa158015610351573d5f5f3e3d5ffd5b505050506040513d601f19601f820116820180604052508101906103759190610b8a565b9050838110156103b1576040517ff4d678b800000000000000000000000000000000000000000000000000000000815260040160405180910390fd5b5f8273ffffffffffffffffffffffffffffffffffffffff166323b872dd8888886040518463ffffffff1660e01b81526004016103ef93929190610bdc565b6020604051808303815f875af115801561040b573d5f5f3e3d5ffd5b505050506040513d601f19601f8201168201806040525081019061042f9190610c3b565b9050806104cd578573ffffffffffffffffffffffffffffffffffffffff168773ffffffffffffffffffffffffffffffffffffffff167f84591632da3297cac8d3bfdd6ff974faf08443fe6e72f89ed83076fe8aaa2592876040516104939190610cc0565b60405180910390a36040517f570f1df400000000000000000000000000000000000000000000000000000000815260040160405180910390fd5b8573ffffffffffffffffffffffffffffffffffffffff168773ffffffffffffffffffffffffffffffffffffffff167f8e386ea29f37964fdbdb87193d773dea74e258b0f6108461c88c712051fb27bc874260405161052c929190610cec565b60405180910390a3600193505050509392505050565b5f5f7f000000000000000000000000000000000000000000000000000000000000000090508073ffffffffffffffffffffffffffffffffffffffff1663dd62ed3e84306040518363ffffffff1660e01b81526004016105a2929190610bb5565b602060405180830381865afa1580156105bd573d5f5f3e3d5ffd5b505050506040513d601f19601f820116820180604052508101906105e19190610b8a565b915050919050565b5f5f73ffffffffffffffffffffffffffffffffffffffff168373ffffffffffffffffffffffffffffffffffffffff160361064f576040517fe6c4247b00000000000000000000000000000000000000000000000000000000815260040160405180910390fd5b5f8203610688576040517f2c5211c600000000000000000000000000000000000000000000000000000000815260040160405180910390fd5b5f7f000000000000000000000000000000000000000000000000000000000000000090505f8173ffffffffffffffffffffffffffffffffffffffff166370a08231336040518263ffffffff1660e01b81526004016106e691906109e8565b602060405180830381865afa158015610701573d5f5f3e3d5ffd5b505050506040513d601f19601f820116820180604052508101906107259190610b8a565b905083811015610761576040517ff4d678b800000000000000000000000000000000000000000000000000000000815260040160405180910390fd5b5f8273ffffffffffffffffffffffffffffffffffffffff1663dd62ed3e33306040518363ffffffff1660e01b815260040161079d929190610bb5565b602060405180830381865afa1580156107b8573d5f5f3e3d5ffd5b505050506040513d601f19601f820116820180604052508101906107dc9190610b8a565b905084811015610818576040517ff4d678b800000000000000000000000000000000000000000000000000000000815260040160405180910390fd5b5f8373ffffffffffffffffffffffffffffffffffffffff166323b872dd3389896040518463ffffffff1660e01b815260040161085693929190610bdc565b6020604051808303815f875af1158015610872573d5f5f3e3d5ffd5b505050506040513d601f19601f820116820180604052508101906108969190610c3b565b905080610934578673ffffffffffffffffffffffffffffffffffffffff163373ffffffffffffffffffffffffffffffffffffffff167f84591632da3297cac8d3bfdd6ff974faf08443fe6e72f89ed83076fe8aaa2592886040516108fa9190610d5d565b60405180910390a36040517f570f1df400000000000000000000000000000000000000000000000000000000815260040160405180910390fd5b8673ffffffffffffffffffffffffffffffffffffffff163373ffffffffffffffffffffffffffffffffffffffff167f8e386ea29f37964fdbdb87193d773dea74e258b0f6108461c88c712051fb27bc8842604051610993929190610cec565b60405180910390a3600194505050505092915050565b5f73ffffffffffffffffffffffffffffffffffffffff82169050919050565b5f6109d2826109a9565b9050919050565b6109e2816109c8565b82525050565b5f6020820190506109fb5f8301846109d9565b92915050565b5f5ffd5b610a0e816109c8565b8114610a18575f5ffd5b50565b5f81359050610a2981610a05565b92915050565b5f60208284031215610a4457610a43610a01565b5b5f610a5184828501610a1b565b91505092915050565b5f819050919050565b610a6c81610a5a565b82525050565b5f602082019050610a855f830184610a63565b92915050565b610a9481610a5a565b8114610a9e575f5ffd5b50565b5f81359050610aaf81610a8b565b92915050565b5f5f5f60608486031215610acc57610acb610a01565b5b5f610ad986828701610a1b565b9350506020610aea86828701610a1b565b9250506040610afb86828701610aa1565b9150509250925092565b5f8115159050919050565b610b1981610b05565b82525050565b5f602082019050610b325f830184610b10565b92915050565b5f5f60408385031215610b4e57610b4d610a01565b5b5f610b5b85828601610a1b565b9250506020610b6c85828601610aa1565b9150509250929050565b5f81519050610b8481610a8b565b92915050565b5f60208284031215610b9f57610b9e610a01565b5b5f610bac84828501610b76565b91505092915050565b5f604082019050610bc85f8301856109d9565b610bd560208301846109d9565b9392505050565b5f606082019050610bef5f8301866109d9565b610bfc60208301856109d9565b610c096040830184610a63565b949350505050565b610c1a81610b05565b8114610c24575f5ffd5b50565b5f81519050610c3581610c11565b92915050565b5f60208284031215610c5057610c4f610a01565b5b5f610c5d84828501610c27565b91505092915050565b5f82825260208201905092915050565b7f4552433230207472616e7366657246726f6d206661696c6564000000000000005f82015250565b5f610caa601983610c66565b9150610cb582610c76565b602082019050919050565b5f604082019050610cd35f830184610a63565b8181036020830152610ce481610c9e565b905092915050565b5f604082019050610cff5f830185610a63565b610d0c6020830184610a63565b9392505050565b7f4552433230207472616e73666572206661696c656400000000000000000000005f82015250565b5f610d47601583610c66565b9150610d5282610d13565b602082019050919050565b5f604082019050610d705f830184610a63565b8181036020830152610d8181610d3b565b90509291505056fea26469706673582212206d951871ef635d67bc471c1439db8f6b5b21ab76074a8f9885d9707c0285be4f64736f6c634300081c0033",
  "linkReferences": {},
  "deployedLinkReferences": {},
  "immutableReferences": {
    "50": [
      {
        "length": 32,
        "start": 313
      },
      {
        "length": 32,
        "start": 351
      },
      {
        "length": 32,
        "start": 729
      },
      {
        "length": 32,
        "start": 1350
      },
      {
        "length": 32,
        "start": 1675
      }
    ]
  },
  "inputSourceName": "project/contracts/Transfer.sol",
  "buildInfoId": "solc-0_8_28-15a4e0a5df16ec0540721d9da72bbc4a62240bbd"
}